:020000040800F2
:10000000600600209D010008250800082708000858
:100010002B0800082F080008330800080000000023
:100020000000000000000000000000003708000889
:1000300039080008000000003B0800083F080008DD
:10004000B7010008B7010008B7010008B7010008B0
:10005000B7010008B7010008B7010008B7010008A0
:10006000B7010008B7010008B7010008B701000890
:10007000B7010008B7010008B7010008B701000880
:10008000B7010008B7010008B7010008B701000870
:10009000B7010008B7010008B7010008B701000860
:1000A000B7010008B7010008B7010008B701000850
:1000B000B7010008B7010008B7010008B701000840
:1000C000B7010008B7010008B7010008B701000830
:1000D000B7010008B7010008B7010008B701000820
:1000E000B7010008B7010008B7010008B701000810
:1000F000B7010008B7010008B7010008B701000800
:10010000B7010008B7010008B7010008B7010008EF
:10011000B7010008B7010008B7010008B7010008DF
:10012000B7010008B7010008B7010008B7010008CF
:10013000B7010008B7010008B7010008B7010008BF
:10014000B7010008B7010008B7010008B7010008AF
:10015000B7010008B7010008B7010008B70100089F
:10016000B7010008B7010008B7010008B70100088F
:10017000B7010008B7010008B7010008B70100087F
:10018000B7010008B7010008DFF80CD000F080FCD0
:1001900000480047E3070008600600200648804743
:1001A00006480047FEE7FEE7FEE7FEE7FEE7FEE75C
:1001B000FEE7FEE7FEE7FEE7010A00088901000806
:1001C00010B58B480068401C894908608948006860
:1001D00020B188480068401E86490860AFF300805F
:1001E000002438E0844850F8240090B3824850F846
:1001F0002400007B68B3804850F82400806840B336
:100200007D4850F824008068401E7B4951F8241036
:100210008860794850F824008068D0B9764A52F84E
:1002200024205069744A52F8242011698847724882
:1002300050F824000168704850F8240081606E482E
:1002400050F82400406820B900216B4850F8240081
:100250000173601CC4B26848001F0078A042C1DC72
:1002600010BD30B5654800684FF47A72B0FBF2F10A
:10027000481EB0F1807F01D301201BE0481E4FF0E3
:10028000E022506150170F22002807DA13071D0ED5
:100290005B4B00F00F04241F1D5503E013071C0ED9
:1002A000584B1C5400BF00204FF0E0229061072003
:1002B0001061002008B100BFFEE7504800685249B5
:1002C000B0FBF1F05149086001205149087030BD80
:1002D0004F48007800B970474FF0E020006940F0C7
:1002E00002004FF0E021086100BFF4E74FF0E0208A
:1002F000006920F002004FF0E021086170472DE90D
:10030000F04705460E4617469846DDF820903A48D5
:10031000001F0078052802DB0020BDE8F0871820C8
:1003200000F000FC04460CB90020F6E725602068C8
:10033000A06066602773C4F81080C4F814902E483B
:10034000001F01780078401C2B4A121F1070101DEE
:1003500040F821402046E0E72DE9F0410646002420
:1003600007E0254850F82400B04200D106E0601CA8
:10037000C4B22148001F0078A042F2DC00BF1E4832
:10038000001F0078A04201D1BDE8F0811A4850F862
:10039000247000BFEFF31080054672B607E01648E0
:1003A000611C50F8211040F82410601CC4B212489F
:1003B000001F0078401EA042F1DC0F48001F0078AB
:1003C000401E0D49091F087005B962B6384600F095
:1003D00081FB00BFD8E70021017370470121017341
:1003E00070470168816070474160704701607047E5
:1003F0000400002008000020340000201400002029
:1004000018ED00E000E400E0C0C62D000C00002064
:10041000100000201CB5032000210B460122CDE96D
:1004200000104FF470411E4800F0AAF84FF47040DD
:100430001B491A3108801CBD1CB50020022103464F
:100440000246CDE900100121164800F099F81CBDC4
:100450001448006900F0010080F0010030B9124832
:10046000007830B9012010490870704700200E490B
:1004700008700020F9E70B48006900F0010080F0E7
:10048000010038B10848007838B1002006490870EA
:10049000012070470120044908700020F9E700009E
:1004A000000C0240000002401100002001464FF401
:1004B0000030081AC0F38F2070472DE9F04304463E
:1004C0000E461546DDE907892046FFF7EFFFC7B264
:1004D000002243E001209040304000B93CE0B148A8
:1004E00030F81700012191400843AE4921F8170068
:1004F000E0684FEA420C032101FA0CF188435100F5
:1005000008FA01F10843E06020684FEA420C032139
:1005100001FA0CF18843510005FA01F1084320600B
:10052000012D01D0022D16D161680120904080B2CA
:1005300021EA000003FA02F189B208436060A06872
:100540004FEA420C032101FA0CF18843510009FAE9
:1005500001F10843A06000BF501CC2B2102AB9DBF1
:10056000BDE8F08300B502461046FFF79FFF01216A
:1005700001FA00F08C49096808438B49086000BD06
:100580002DE9FC4305460C4616461F46DDE9098960
:100590000CB9BDE8FC832846FFF7E4FF3B46324632
:1005A00021462846CDE90089FFF787FF00BFF0E725
:1005B0002DE9FC4705460E4617469846DDE90A9A9E
:1005C0000EB9BDE8FC872846FFF7CCFF00241AE0EF
:1005D0000120A040304000B914E0E10805F12000FE
:1005E00050F821006107CA0E0F219140884361072E
:1005F000C90E0AFA01F10843E20805F1200141F8A9
:10060000220000BF641C102CE2D33B46022231467C
:100610002846CDE90089FFF750FF00BFD1E770B54C
:1006200003460C461846FFF741FFC5B2002214E00E
:1006300001209040204070B1186856000321B1405D
:1006400008431860574830F815000121914088434D
:10065000544921F81500501CC2B2102AE8DB70BDC5
:1006600030B5024600200BE0012383400B402BB144
:10067000136845000324AC40A3431360431CD8B265
:100680001028F1DB30BD30B5024600200FE0012319
:1006900083400B404BB1136845000324AC40A34397
:1006A00045000124AC4023431360431CD8B21028FA
:1006B000EDDB30BD30B5024600200BE00123834066
:1006C0000B402BB1136845000324AC402343136057
:1006D000431CD8B21028F1DB30BD30B502460020F3
:1006E00011E0012383400B4003B90AE01368450081
:1006F0000324AC40A34345000224AC4023431360D1
:1007000000BF431CD8B21028EBDB30BD70B50346E8
:10071000002011E0012484400C4004B90AE0DC68A8
:1007200046000325B540AC43450002FA05F52C43CD
:10073000DC6000BF441CE0B21028EBDB70BD41F46C
:100740008032C261C161C261C369C3697047014639
:10075000002002E0421C90B249100129FADC7047E7
:1007600000B502461046FFF7A1FE012181400E4868
:10077000006888430C49086000BD00B50246104679
:10078000FFF794FE074931F8100000BD00B502469E
:100790001046FFF78BFE034931F81000C04380B2CA
:1007A00000BD0000480000203038024008B51B4959
:1007B0000968009100BFEFF3058139B900BF1749FF
:1007C0000968009A891A8142F9D309E006E04FF0DE
:1007D000E021096901F4803101B1401E0028F6D101
:1007E00008BD00F00DF9FFF73CFDFFF713FE4FF4D5
:1007F00070400B4908804FF4FA60FFF7D7FF0BE019
:100800000748001F006880F470400549091F086010
:100810004FF4FA70FFF7CAFFF2E70000040000206F
:10082000180C0240704700BFFEE700BFFEE700BFA4
:10083000FEE700BFFEE7704770477047704710B58E
:10084000FFF7BEFC10BD000070B50020002202239F
:1008500000240221824D2D6805F00C0020B10428EF
:1008600006D0082834D107E07E4D7F4E356033E056
:100870007E4D7D4E35602FE0794D2D1F2D68C5F3DF
:100880008054774D2D1F2D6805F03F0154B1774DF1
:10089000B5FBF1F5724E361F3668C6F3881605FBB8
:1008A00006F209E06F4DB5FBF1F56D4E361F366867
:1008B000C6F3881605FB06F2694D2D1F2D68C5F39A
:1008C00001456D1C6B00B2FBF3F5674E356003E02C
:1008D000644D654E356000BF00BF614D2D68C5F3A6
:1008E0000315634E705D604D2D68C5405E4E3560EA
:1008F00070BD0CB500200190009059480838006880
:1009000040F4803056490839086000BF5448083820
:10091000006800F4003000900198401C019000989D
:1009200018B90198B0F5A04FF0D14D4808380068CB
:1009300000F4003010B10120009001E00020009090
:1009400047483830006840F08050454938310860E9
:100950004848006840F44040464908604048006804
:100960003F4908600846006840F4004008600846B7
:10097000006840F4A05008600098012815D13E4856
:10098000091F0860081F006840F08070091F086098
:1009900000BF33480838006800F000700028F8D025
:1009A00040F205703549086015E035482C49091FAB
:1009B0000860081F006840F08070091F086000BFD1
:1009C00027480838006800F000700028F8D040F28E
:1009D00002702A4908602248006820F0030020497C
:1009E00008600846006840F00200086000BF1C482C
:1009F000006800F00C000828F9D1FFF725FF0CBDB6
:100A000010B52048006840F470001E490860144882
:100A10000838006840F001001149083908600020DA
:100A20000F4908600E4808380068174908400C490B
:100A3000083908601548091D0860081F006820F47F
:100A40008020091F086000200549091D0860FFF784
:100A500050FF4FF000600B498039086010BD000066
:100A6000083802400024F4001400002040787D0182
:100A7000180000200070004008544007003C02406D
:100A80000854000788ED00E0FFFFF6FE1030002458
:100A9000064C074D06E0E06840F0010394E80700CB
:100AA00098471034AC42F6D3FFF772FB900B000866
:100AB000B00B000802E008C8121F08C1002AFAD1D2
:100AC00070477047002001E001C1121F002AFBD1CE
:100AD0007047000010B5002821D0114B0022001FE4
:100AE000196803E0814203D80A4649680029F9D110
:100AF00052B11368841A9C4204D1006818441060F3
:100B0000104602E0506000E0186039B102680B1A2C
:100B1000934203D10B681A4402604968416010BDDA
:100B200028000020F0B50B30154D20F007010024FF
:100B3000144A0FE003688B420BD38B4205D95E1A2F
:100B400043184768C3E9006700E04368136002C0C8
:100B500004E0021D10680028ECD12046002802D1D4
:100B6000286808B10020F0BD064A07481060074A0F
:100B7000121A22F00702C0E9002401202860D7E7FA
:100B80002C000020280000206400002060020020CB
:100B9000B00B00080000002030000000B40A00087C
:100BA000E00B00083000002030060000C40A0008F6
:100BB0000000000000000000000000000000000035
:100BC0000000000040DD4A1F00000000000000009F
:100BD00001020304060708090000000000000000ED
:040000050800018965
:00000001FF
